:100000000C9444050C946D050C946D050C946D05D1
:100010000C946D050C946D050C940A210C946D05DF
:100020000C946D050C946D050C946D050C94C6171D
:100030000C946D050C946D050C946D050C946D0578
:100040000C946D050C946D050C94E5200C94B8206F
:100050000C946D050C946D050C946D050C946D0558
:100060000C946D050C946D05040000020200000064
:100070000204070004000404000000040407040054
:10008000000400020204040000040404040400004C
:100090000400040404040404040004000203040033
:1000A0000404000404040004000004000400000030
:1000B0000000000000000100020102AB00D01202AB
:1000C000000001000000C11203000001000000CD8B
:1000D00012040000010000001613050000010000DA
:1000E000005B1306000100011C0A1C16070000013A
:1000F00000000092160800010001AA00761609000F
:100100000001000000B5140A00020101170ADB1506
:100110000B00030103A700B6140C00020102A500A6
:10012000F0150D00020002AB00520F0E000200029B
:10013000A300AD0F0F00030003A700D71C1000029F
:100140000002A500501D11000500059E006E1D1245
:1001500000020002A300121A1300010001AA0069A4
:100160001A1400020002A500411A1500020002A3A1
:1001700000861916000400049A00D110170005002B
:10018000059500570F1800010001AA006E0C190018
:100190000800088D005D0B1A000300038A00A20C02
:1001A0001B00020002A300420D1C00020002A50079
:1001B000300B1D000400048600DB0C1E0001000152
:1001C000AA00CE0A1F000800087E00E00A200002F4
:1001D0000002A500B40B21000400037B00EA0D22FD
:1001E00000030002080A130F2300030002080A2379
:1001F0000F24000400047700140E2500010001AA5A
:10020000008C0D260003000374009E0A27000400E2
:10021000037100C71B2800030002080A8A1C29007A
:100220000400047700940D2A00010001AA00840D47
:100230002B000300036E000D172C000300030A0AB5
:1002400016172D00060006680090172E000001000A
:100250000000AC202F000000050000001011121358
:100260001415222378DA9D586D6FE33612FE2B3C6D
:10027000018B5E0F6EE0F7382EF643E2A445B09B8B
:100280006C364EBA050E85C048B44CAC2CA924156A
:100290006F5AE4BFDF331CEAC549DA02B7C0C22295
:1002A00039430E679E9979983F235955D132FA9078
:1002B000EBAA52261A440FB5CED3F85119ABCBC2D4
:1002C00062294B92A5F8F7CFABD5F76276343D1A89
:1002D0008A075DD44EE79666AFEFC559187E2FC6E4
:1002E00047E3F9D178389A0F47E319B64ACADD4E89
:1002F000162936F93392795E26D2A9B8D4A91549C0
:100300005917EEFDBB245A2E20962B6962BBAD5DBA
:100310005AEE8B683926CD62A3B35816322FB358E4
:1003200017025A1017952EDEBFABA3E5A4934975AB
:10033000A69DCCE3B2768752E251E6B5A271AA3609
:10034000B2CE5DDC4EECE4B738AD8D74B8A2DF6F91
:1003500074DCEEA760B02BAB83BDF053E7795C573C
:10036000DEE4F1BC15D6E3240846CB696753B5DF5C
:10037000BD614FF2849BC64E275F6DCFBC6DFDD231
:100380003ECCBC32703A6B37B7957EB9B18D65E221
:10039000F4A38AB73ADB7A63268BBE7CEBDC46910A
:1003A000E69ACFB014EF6CF6FEDD7F10ACC9E440E6
:1003B00077AFDD16978913DB5E75D2B9CB3A45C0AE
:1003C0006937C6300E3E4BB5693E750140392FDCAA
:1003D00049D5B9EDDC01B776C73A639F8ACEB393AE
:1003E000E1204AD5439DC54509B09E34236C9E89C2
:1003F000543AC9768F5A31A3642A4A932A43A7C92B
:1004000034351CE57123B037DAA957121412161CC3
:100410000D22B553265345F214131C6004A6181A76
:10042000F1B6DCA9E6C20960FD9574ADDC55FDF0BE
:1004300086718374619475DD2A4CEFE0C8D76D0234
:10044000E28CCE3265E81296A24F889B7587FF5EDC
:100450002B433649A75A078DA78368A3912CFA0F1F
:100460003A917C281293F8BB00AC9942F4C8CE684C
:10047000390B232F132D8F7958574EEF1450368890
:1004800080E8E03EB6C6288F0A417371AE42FA9DFD
:10049000B0A085EE43DDE042D01486743F4057D1D2
:1004A0002F7956590EF074C45AC1F9ACD3856F8AAE
:1004B000F0E954154E6F9E44B9D960730FEEB654EF
:1004C000409D2FFFAA2CFC9F41D875410839D78D3C
:1004D0008C2C32286E55F235EE4C98B00DB57AABB7
:1004E000ECB45694450FD6A359A3F2A22AB4E2ED78
:1004F000A1F0C1B411A61469FD5A3865189B8D3B53
:10050000B6DEB5F8D5883E608D8B2907FD79F8F405
:10051000FA1CF497E741019E2699FE1D5ED44CD843
:100520003D7925E46FE0AB58BBE7414983D29C9508
:100530000AF52D988022D0865A1B46EB88851A7FB3
:10054000FC4379C4ADC814AA62C881D7B8994C9B42
:10055000D50330D25400E3AE4C550F945099B38A72
:100560004394EDA6AB5EBD4D11B550DA62CA90AAB8
:10057000B49A8A719B72A3934EC0E725059D3357A9
:10058000B489DC4B6B68A0248729329532EE0D3498
:10059000C03D3D39278DEB32B12A4D48647F1B1E8B
:1005A000B70E53DF2A6DD441D93869777A615A5F23
:1005B0000835A0AE526ACD6F60BA8787E973539F42
:1005C000A99F9F9EAFE2ABD35FA9EA52E13EBB5F1A
:1005D000C73797D76BEA18E00C3767D3C1CDD9047A
:1005E000FF8907B48B6EEF1757B3C1CD6A8A85D5E3
:1005F000C74FAB0FF14FB7179F093A43FF6F105D1D
:10060000ADEE2125DD4E6572325E5410BCF972C527
:10061000A78D6708CCEDC5EAE2F2978BF8CBE5F53C
:10062000F9A72F148B314DAE2F6E31C95628A36513
:100630004E679D0F0737E7236C81D5CBD38FF1D958
:10064000E9FD396DC347ADEF4EEFD6F1FAFE6AFD15
:10065000192BEB0B5A993F53B1AD51FE7DFBF5ECD5
:10066000255436FAF477184206B0A5F1CDD9305AA0
:10067000FE773158FC063357F48D24F083731AA0AB
:1006800034FBC1050D405B16BF3D33F6C276DE5F1D
:10069000B41D55744D2137E86AB14E8393850FC65A
:1006A00086EB11738FD39C8AF193682A7ECAC9BAEC
:1006B0009285284A27002E61CB0DF26ABFE3A4126F
:1006C0001E2362BFD5F8E6585B51219970125783FB
:1006D00046B7B6248CAB8FC4A634026EFFB1196B3B
:1006E0004BABA99FF753961313AADF392A46C2EAE8
:1006F0000C0609B7958EA4653093A90937B1206C13
:10070000499420C6AD96677DDDF25BC3525588865D
:1007100059B4FA08F28A19A5A8A441888532A634EA
:10072000BE8B350B46A17C5AE779E54F12F74D8514
:100730002B852F1CC4D57C4271FFBA1CAFC4F5E9D0
:10074000EA0317751A010CB777CDDCB03F777B71E0
:100750007A1E16C641F58ED397D3F5B2409EE85463
:1007600004C2EBDB6C3787824D06CB9D4219679E36
:10077000D32CEECA47D5D80CFFFDA128CFBA657897
:1007800048B8A74A317569668900368948D9DB9B24
:10079000A7CA5257DD699699E0155AB0CC94009DCE
:1007A00041296CDC06285D694B31B5E873699D13FE
:1007B0009D02D4A8788B500B3CFCD423BA32D7EDE1
:1007C000BF56D84A937AC80569629157743DDFCF06
:1007D00004BECC262FF7DC10AF813529D86C02B9C6
:1007E000CF256295FD05A08F17A82BF617745171C0
:1007F000DBE03AED970AB2B49B9EFB9AD162B0322D
:10080000650697EC60BAA4BB6D50F461255CA62820
:100810007D88BADFAA7029820CE11BC700CB0ACE03
:10082000243C519759B702AFBC23F63ACF518213FB
:10083000EC77C0DEB953749AAD87FE46835E37EB22
:1008400086B1FBD711447C4EF8FCEE3F94D621498B
:100850005C598A8DF436B3BD4409EFFC3568094D07
:10086000C32ACF61EF0B5B57D4381467842F43C47E
:10087000CCBE48976CD332E3CBFF8B9F1CFED506D2
:100880001654175FB13DA513BF957AF3B65BE8DE4A
:10089000459CCB659123FD1FB12C1FF226AB5BEB72
:1008A00099430AD72412F13FFF386C0B477832A6E0
:1008B0004CED2D51C342E5213A09967DECDE6C5F8B
:1008C000E428060B3D5F420D612852277E46C1CDCC
:1008D00075A20AF24A44AFD89F6F3E3E4E22CF9E89
:1008E0002A147DC58FD686681EF06D8FF7F82DFA15
:1008F000363BA1D72C71AEAE9DCFDA67218A62203C
:10090000DEBEE17B7E4E738D4BFCCB147912B71C9F
:100910000FDA93EE4D63F1466C9F28B3DE93E0C08F
:10092000383C4E9096AFCDECBF38A07EDC51FDB880
:10093000B973C70E78CC54683EEA78794FB425E88D
:100940004C9A8E4894187C771FF1B2A505368782A1
:10095000843DFA2FB71951B80EF00D997F5BFDE475
:1009600090BBFD93F543DF5A8DF3BD6E7ACC8DB607
:10097000FD0B044EA977E1C7FECE9E1D76CCEE0599
:10098000ED1318BF7F87863D9BF7395AE7FC44B6C5
:100990002CF0CDA75C1F170B02AE6F77FC6AAFFB84
:1009A0008B230034FC0D06007D1C1E8DC647C31F23
:1009B000A6B3C50F59BA58CC93D1F17C143DFF0FA3
:1009C000F2ECEC2A6007000000002300260029005A
:1009D0002C001E47004400450080011D48004400D3
:1009E000450020010988008000810080000A8A00FB
:1009F0008000810020000BB300B000B10080031B19
:100A0000B400B000B1002003040704000204040491
:100A100000040400040401070400040200000000B4
:100A2000000000060002023D004002080A3C0040AF
:100A300002080A3B0010030A0A3A0011040D0A39A1
:100A4000001104110A38000D02150A37000B011CB1
:100A50000A36004001170A35001204180A34000B48
:100A6000011C0A330010021D0A320015031F0A0080
:100A7000004002220A31000E02240A300009012639
:100A80000A2F00060000000011241FBECFEFD8E09F
:100A9000DEBFCDBF14BE0FB6F894A895809160005C
:100AA000886180936000109260000FBE11E0A0E0AA
:100AB000B1E0E4E7F3E402C005900D92AA32B10779
:100AC000D9F722E0AAE2B1E001C01D92AF38B20727
:100AD000E1F70E94F8180C94B8210C940000CF9311
:100AE000DF93CDB7DEB761970FB6F894DEBF0FBEC8
:100AF000CDBF8FE892E090935C0180935B01FFB6DD
:100B0000F8941092800001E000938100E4E8F0E0A6
:100B10001182108280819181C29690938900809386
:100B2000880012E016BB80819181C29690938B0061
:100B300080938A0084E086BB89E091E00E94341EA5
:100B400006BB10936F00FFBE9DE088E10FB6F894DE
:100B5000A895809360000FBE9093600080E480931E
:100B600060001093C00087E090E09093C5008093F0
:100B7000C40086E08093C20088EB8093C10081E8C6
:100B80009AE09F938F930E94B21E0F900F90F8945B
:100B900087E391E00E943F218C01892B09F015C366
:100BA00078940E94E5184B015C0182E2282E81E0D6
:100BB000382ED10114968C918823E1F00E94E5181B
:100BC000861A970AA80AB90AF894F1018481882341
:100BD00051F08FEF8583848378940000F894F101BD
:100BE00084818111F9CF78940E94E518860E971EB2
:100BF000A81EB91E81E0D10114968C93EEE4F1E0B9
:100C000080818823D9F110828FEF8A836EEC7AE09D
:100C1000CE0102960E94C1168C01892B79F1F80150
:100C2000868982FFF3CF0E94E518F894D801579681
:100C30003C91579756962C915697422F4B7F56963C
:100C40004C9378949F938F937F936F931F923F93CE
:100C500021701F922F938A811F928F93E9E3FAE00C
:100C6000FF93EF930E94B21E4DB75EB7445F5F4F94
:100C70000FB6F8945EBF0FBE4DBFC8CFEFE4F1E0F2
:100C800080818823C1F010828FEF898364EB7BE041
:100C9000CE0101960E94C116FC01892B61F0958D51
:100CA000868D9813F3CFF894858D968D891709F466
:100CB00089C17894EBCFA89580916B01882329F0A6
:100CC00080E48093600010926B0110912C0211233C
:100CD00009F452C0D0902A01D0FEFEC0412F50E04E
:100CE0006EE770E08CE691E00E948921009749F060
:100CF00020912A012E7F20932A018C56914011E0E9
:100D0000180F80912A0181FFD8C0C12EDD24DA940A
:100D100080E06CE2E62E62E0F62E6C2C712C07C0AF
:100D20009FB7F894D7012C911217C1F09FBFD7013C
:100D30001C91012F0C19A1F390E0402F50E0481BAB
:100D4000590BB301680F791F64597E4F84599E4F28
:100D50000E949F21F1011482802FE2CF00932C0288
:100D60009FBFB1E0DB1208C086E592E09F938F93AE
:100D70000E94B21E0F900F900E94E5182B013C01BB
:100D8000681979098A099B09C0903301D090340110
:100D9000E0903501F0903601FFEFCF1ADF0AEF0A3D
:100DA000FF0AC0923301D0923401E0923501F092F3
:100DB000360180902F0190903001A0903101B090C9
:100DC0003201860E971EA81EB91E80922F019092A6
:100DD0003001A0923101B09232016115710521E01C
:100DE0008207910508F048C09B01AC010E941521C3
:100DF000DC01CB0181509F4FAF4FBF4F892F9A2FFE
:100E0000AB2FBB2700912B0110912C0120912D01BC
:100E100030912E01800F911FA21FB31F40912B0113
:100E200050912C0160912D0170912E01841795072E
:100E3000A607B70720F48FEF9FEFAFEFBFEF8093C8
:100E40002B0190932C01A0932D01B0932E01409182
:100E500054015091550160915601709157015C54B5
:100E60006B437B4F272D441655066606270B27FF3D
:100E70004DC0530142019DCE61157105E0E18E0721
:100E80009105C8F68B019C0101501F4F2F4F3F4F1A
:100E90005527432F322F212F0E94152100912B011E
:100EA00010912C0120912D0130912E01DC01CB01FC
:100EB000800F911FA21FB31FB1CF826080932A01C0
:100EC000C12E86E592E09F938F930E94B21E0F90F1
:100ED0000F90DD24DA941CCF153008F44DCFECE6EA
:100EE000F1E0C0808BEF8C0D8C3330F40181802FCA
:100EF000807F803109F487C080916C018E3709F4BE
:100F0000E7C28D2D816080932A01E8CEBF93AF9315
:100F10009F938F93BF92AF929F928F92FF92EF9287
:100F2000DF92CF9289E69AE09F938F930E94B21E40
:100F30002DB73EB7225F3F4F0FB6F8943EBF0FBEAE
:100F40002DBF8091540190915501A0915601B0910F
:100F50005701481659066A067B0698F4809150019D
:100F600090915101A0915201B09153010196A11DA0
:100F7000B11D8093500190935101A0935201B09301
:100F80005301409254015092550160925601709263
:100F9000570110922B0110922C0110922D011092EA
:100FA0002E0110922F0110923001109231011092F7
:100FB00032011092330110923401109235011092D7
:100FC000360157CF548965899089218932894389AF
:100FD0008F5F858F78946F935F934F933F932F9399
:100FE0009F9389811F928F9383E39AE09F938F93BE
:100FF0000E94B21EEDB7FEB73A960FB6F894FEBF48
:101000000FBEEDBF43CE1C1508F4B6CE8C2D90E07C
:10101000FC01E559FE4F20812E3709F06DCFAC0160
:1010200047595E4F7A01FC01E659FE4F9081DA0183
:101030008C91292F30E03901782A6DEF6C0D8CE608
:1010400091E00E94FB186816790609F055CF8D2DA6
:101050008D7F80932A0180911101081332CF81E0A6
:10106000800F8F70806180931101BEE66B2EB1E01E
:101070007B2E19E0D12E6E147F0408F026C2EDB746
:10108000FEB7FC87EB87D3012C9127FD0AC2BFEF87
:101090006B1A7B0A30E02115310509F431C2E4E511
:1010A000F2E0859194912817390708F029C2D29E61
:1010B000C001D39E900D1124FC01E155FF4FE49136
:1010C0004DB75EB764E0E69F4019510911240FB691
:1010D000F8945EBF0FBE4DBFADB7BEB71196BA87CD
:1010E000A987FC01EF54FF4F6491FC01EE54FF4FC0
:1010F00045915491FA018A01060F111DAD013E87F9
:101100002D87F98BE88B8889998908171907B9F118
:10111000E614F70408F4C2C1E889F989849185309E
:1011200008F477C1873009F0B9C12301FFEF4F1AE6
:101130005F0AD3016C913201660E711CE614F7044C
:1011400008F4ACC1862F90E0A0E0B0E0FA01808303
:101150009183A283B383C201A0E0B0E0848395832E
:10116000A683B783485F5F4F288939892F5F3F4F38
:10117000398B288B888999890817190749F62D8595
:101180003E85D10116968C91882351F0D29EF001B4
:10119000D39EF00D1124E055FF4FE491E0FF9AC17A
:1011A000D29EF001D39EF00D1124EC54FF4F2591F7
:1011B000349189859A85F90109952B853C850FB66F
:1011C000F8943EBF0FBE2DBF56CFF8940E94E5188D
:1011D000F62EE72ED82EC92EE2E2F1E086818111AB
:1011E00001C0078382E291E022E0DC0116962C9395
:1011F000169700E011E00D931C93EAE1F1E04481C1
:10120000558166817781D80114964D935D936D93D6
:101210007C931797DC011396FC93EE931297D801F9
:10122000ED93FC9382E191E091838083809184002F
:1012300090918500C296909389008093880026BB88
:1012400010926A010E94F7118FEF888701E1B02E9A
:1012500013C0F80143A140716489758986890E9491
:10126000FC1AD80193968C91982F907184FD9B2D38
:10127000F80193A310A2178E6EE67DE1CE010896C9
:101280000E94C1168C01892B21F78FEF8F8309C033
:10129000DC0195961C921E92949760E088960E94BD
:1012A000A31967E57FE0CE0107960E94C11600975B
:1012B00079F78FEF8E8302C00E94BC0C6EEC7AE04F
:1012C000CE0106960E94C1160097B1F78FEF8D836D
:1012D0001FEF0AC090910801828D981302C01093ED
:1012E0000801868D81117BC064EB7BE0CE01059601
:1012F0000E94C116FC01892B69F78FEF8C8311E0E6
:1013000004C0FC01258120FD60C06EE97AE0CE01B9
:1013100004960E94C1160097A1F78FEF8C830CC032
:101320009C012D5F3F4FDC0112964C91129760E0BB
:101330008D919C910E94B30E6AEE7DE0CE010496E1
:101340000E94C116009761F78FEF8B830FE31BE1BB
:101350000BC02FB7F894992711969C938E932FBFAB
:1013600013830283128A118A60E977E1CE01039622
:101370000E94C116FC01892B49F087859089A085C0
:10138000B1852285222329F38C93EACF89E091E06D
:101390000E94341EE2E2F1E081E086837894878146
:1013A0001F928F93CF92DF92EF92FF9285E79AE0A0
:1013B0009F938F930E94B21EEDB7FEB738960FB67B
:1013C000F894FEBF0FBEEDBFEBCB23FB442740F9E3
:1013D00041276281738184810E94FC1A96CF8F5FBE
:1013E000858F408951896289738980859185A2851D
:1013F000B385840F951FA61FB71F808B918BA28B7F
:10140000B38B84839583A683B783CF010E94341E58
:101410006BCFBA016C5F7F4FC3010196D301EC9192
:101420003E2F3F77432E512C612C712CBE2FB0766E
:10143000B03609F443C0E7FF29C0E889F98901966D
:10144000DC0111972C91440C551C661C771C440C34
:10145000551C661C771C440C551C661C771C440CE0
:10146000551C661C771C440C551C661C771C440CD0
:10147000551C661C771C440C551C661C771C322FAF
:101480003F77432A27FDDBCFF98BE88BFA014082B7
:101490005182628273823C01AB0166CE87E00E947A
:1014A000D81D2F77E0E82E9F90011124D3011196CB
:1014B0008C91282BF30132963F01EDCDB0EE4B2AF3
:1014C00055245A94652C762CB6CFDD24D39420CCA9
:1014D00011E01BCCF10187811F928F932BE73AE03B
:1014E0003F932F930E94B21E0F900F900F900F907A
:1014F0008B859C850FB6F8949EBF0FBE8DBFBBCD6C
:1015000085E00E94D81DFC0186898460868B10923C
:10151000260181E080934E01448155816681778167
:1015200080899189A289B389840F951FA61FB71F4F
:1015300084839583A683B78381E00895FF920F93F8
:101540001F93CF93DF938C0146E050E06EE97AE081
:10155000FC0180810E949212EC01F801F08461E0AC
:10156000F11060E0F80184810E940B1B6A837B8389
:101570008C838D81F11009C091E0892B8D83DF91DF
:10158000CF911F910F91FF90089599E0892B8D8342
:10159000DF91CF911F910F91FF90089549E150E0A5
:1015A0006EEC7AE0FC0180810E94921223E83AE01E
:1015B000FC01338322832DE73DE0338722870895A2
:1015C0000F931F93CF93DF938C0164EB7BE0FC01BF
:1015D00080810E94DF11EC010E94E21D90910801C0
:1015E0008A8D981303C08FEF80930801F8018481DE
:1015F0009581A681B781888B998BAA8BBB8B8C83B5
:101600009D83AE83BF8380859185A285B3858C87BA
:101610009D87AE87BF8784858E8F91E0980F9D8FC1
:101620004089518962897389488759876A877B878E
:10163000248935893F8B2E8B208D318D398F288FD2
:10164000948D9C8F811105C0DF91CF911F910F91D7
:101650000895CE01DF91CF911F910F910C94341E0C
:10166000EF92FF920F931F93CF93DF938C016EEC59
:101670007AE0FC0180810E94DF11EC01F8948E89F0
:1016800080FF13C07E01F8E0EF0EF11CC7010E943D
:10169000E21DF80184819581A681B7818C879D87A1
:1016A000AE87BF87C7010E94341E7894DF91CF9127
:1016B0001F910F91FF90EF9008950F931F93CF9379
:1016C000DF938C0162EA7CE0FC0180810E94DF11E3
:1016D000EC010E94E21DF80184819581A681B78109
:1016E0008C839D83AE83BF8380859185A285B385DE
:1016F0008F87988BA98BBA8B84858A8F882361F119
:10170000F80140895189628973894B875C876D87AD
:101710007E8725E539E13B832A838B8F84899589F0
:10172000A689B789892B8A2B8B2BA1F482E0898F1C
:101730006EEC7AE0F801808D0E94DF11988F8F8B1C
:10174000F801848D8C8FCE01DF91CF911F910F9185
:101750000C94341E83E0EBCF188E1F8A198EDF9114
:10176000CF911F910F910895CF93DF93DC011496D1
:101770009C911497C0E0D0E0FE01E45AFD4FE49143
:101780009E1739F02196C830D105B1F785E20E9445
:10179000D81D87E980937A0030917E0081E090E047
:1017A0000C2E01C0880F0A94EAF7832B80937E00E9
:1017B0004FE150E064EB7BE08C910E949212FC01BF
:1017C0008AEE9BE093838283C28F81E0858FDF91D5
:1017D000CF910895FC0180917A0086FF0EC084812C
:1017E0009581A681B7818853984FAF4FBF4F8483AF
:1017F0009583A683B78381E00895828D9091080137
:10180000981761F09F3F59F78093080187708064B3
:1018100080937C0087ED80937A00E1CF8FEF8093F7
:1018200008012091780030917900858D968D891777
:1018300080F544895589240F351F8F5F358B248BA4
:10184000858F891760F18689978928173907C8F12C
:10185000808D918D82179307A0F1138E109226012F
:1018600081E080934F014089518962897389808525
:101870009185A285B385840F951FA61FB71F808B06
:10188000918BA28BB38B84839583A683B78381E0EE
:10189000089581E0358B248B858F8917A0F64481CC
:1018A00055816681778184859585A685B785840F66
:1018B000951FA61FB71F84839583A683B78381E0F6
:1018C0000895838D8F5F838F948D891738F280916F
:1018D00028018111C2CF8AE10E94D81DCF93FC015B
:1018E000C08162EA7CE08C2F0E94DF11FC01F89439
:1018F000818D33894489558966897894A085B1851D
:101900002C919285922321E009F420E01F922F93DD
:101910006F935F934F933F93869581701F928F9340
:101920001F92CF938FE39AE09F938F930E94B21EF2
:101930008DB79EB70C960FB6F8949EBF0FBE8DBFA5
:10194000CF9108950F931F93CF93DF93EC014DE157
:1019500050E062EA7CE088810E9492128C016885E6
:101960008C810E94C31AF801608771878287DF919A
:10197000CF911F910F910895CF93DF93EC010E94B7
:10198000E21DCE0108960E94E21DEC89FD89309788
:1019900051F0908181811382128211821082E92F8D
:1019A000F82F3097B1F71D8A1C8A188E1F8A1E8A5D
:1019B000DF91CF9108950F931F93CF93DF938C0105
:1019C0006EEC7AE0FC0180810E94DF11EC01F8945A
:1019D0000E94BC0C81E08E8BF80184819581A681E8
:1019E000B7818C839D83AE83BF8380859185A285DB
:1019F000B385888B998BAA8BBB8B892B8A2B8B2BDE
:101A000019F0CE010E94341EF8018485888F7894E5
:101A1000DF91CF911F910F9108950F931F93CF9353
:101A2000DF93EC010FB7F8949E8990FF25C0162F25
:101A30006F8B9A7F94609E8BAC89BD891097B9F0AB
:101A40001296ED91FC9113978D919C9111979D8B1E
:101A50008C8B11961C921E9213961C921E921297BA
:101A6000612FCD010995AC89BD89109749F7109276
:101A7000260181E080934E010FBFDF91CF911F912E
:101A80000F910895EF92FF921F93CF93DF937C0104
:101A9000FC0110816EEC7AE0812F0E94DF11EC01D5
:101AA000F894F70164810E940D0DCE010E94E21DA1
:101AB000CE0108960E94E21D1E8A8F8978941F929B
:101AC0001F921F921F921F928F931F921F921F921D
:101AD0001F9389E39AE09F938F930E94B21E8DB764
:101AE0009EB70C960FB6F8949EBF0FBE8DBFDF91C8
:101AF000CF911F91FF90EF9008950897FC01608DA2
:101B00000E940D0D80E0089543E050E064E87DE020
:101B1000FC0180810C94921246E050E06EE97AE07C
:101B2000FC0180810C9492128F929F92AF92BF928F
:101B3000FF920F931F93CF93DF938C01FC01848559
:101B40008F77F82E64E87DE080810E94DF11EC0140
:101B5000F80184819581A681B781892B8A2B8B2BF3
:101B6000B1F58091BC0082FF10C08F2D880F888353
:101B70008A8182608A83DF91CF911F910F91FF90BC
:101B8000BF90AF909F908F900895F80180849184CA
:101B9000A284B38461E084E10E940B1B61E085E1D3
:101BA0000E940B1B1092B900F0E88F16FAE19F0615
:101BB000F6E0AF06B10438F488E48093B80084E01E
:101BC0008093BC00D2CF8CE08093B800F8CF89E23C
:101BD0000E94D81DCF92DF92FF920F931F93CF9355
:101BE000DF93EC016EE97AE08C810E94DF116C01D9
:101BF000F8840F2D10E0A8014D5F5F4F6AEE7DE085
:101C000088810E949212FC01D182C082F2826C858E
:101C10007D85A8010396DF91CF911F910F91FF90D1
:101C2000DF90CF900C9496218F929F92AF92BF92AB
:101C3000FF920F931F93CF93DF93EC016EE97AE04D
:101C400088810E94DF118C01F88483E08F1508F4ED
:101C500084C0F8018581867009F07FC08C849D84E2
:101C6000AE84BF848C819D81AE81BF81892B8A2BFC
:101C70008B2B09F075C0EAECF9E0A591B4911196AF
:101C80008C9182FD04C060E08AE00E940B1B60E042
:101C90008DE00E940B1B60E08BE00E940B1B60E05C
:101CA0008CE00E94C31A80E58CBD1DBC8114F2E15A
:101CB0009F06FAE7AF06B10408F041C0811489E03D
:101CC00098068DE3A806B10418F5E0E88E16E4E85E
:101CD0009E06EEE1AE06B104C0F5F0E48F16F2E424
:101CE0009F06FFE0AF06B10468F580E2881681EA3E
:101CF000980687E0A806B10458F590E0E0E98E1652
:101D0000E0ED9E06E3E0AE06B10428F583E002C0F4
:101D100090E080E0CF2DCC0FCC0FC065C82BF80130
:101D2000C0839183858184608583DF91CF911F91EA
:101D30000F91FF90BF90AF909F908F90089591E08A
:101D400080E0E8CF90E081E0E5CF91E081E0E2CF74
:101D500091E082E0DFCF82E0DDCF8BE10E94D81DF1
:101D600086E20E94D81DCF92DF92EF92FF920F93EE
:101D70001F93CF93DF93FC011581512F567049F4C7
:101D8000DF91CF911F910F91FF90EF90DF90CF9057
:101D90000895D32EE22EF42E062FEC01908181813E
:101DA0009CBD8DBDF12FF170CF2E10FD33C00023EF
:101DB00019F19FEF9F0DFF2059F0EE2DFD2D208191
:101DC0002EBD0DB407FEFDCF2EB521939150B8F76F
:101DD000CC20B1F213FB112710F941E041276A81B1
:101DE0007B818C81DF91CF911F910F91FF90EF90BC
:101DF000DF90CF900C94FC1AEE2DFD2D9F012F0D3E
:101E0000311D2E173F0721F391919EBD0DB407FEA2
:101E1000FDCFF7CF13FB442740F96A817B818C818A
:101E20000E94FC1AC4CFCF93DF93EC016EE97AE0F5
:101E300088810E94DF11288539854C8160E0DF911F
:101E4000CF910C94B30EFF920F931F93CF93DF9318
:101E5000EC0118816EE97AE0812F0E94DF110C817C
:101E6000F884C9852F2D3C2F402F61E00E94B30ECE
:101E7000CF93FF921F920F931F921F938DE29AE0D0
:101E80009F938F930E94B21E8DB79EB708960FB690
:101E9000F8949EBF0FBE8DBFDF91CF911F910F9120
:101EA000FF900895FC01648180810C940B1B0F93BB
:101EB0001F93CF93DF938C014DE250E067E57FE005
:101EC000FC0180810E949212EC01F80184851816B1
:101ED0000CF041C064E06CA7F80184810E940B1BE8
:101EE0006A8F7B8F8C8F60E0F80180850E940B1BCE
:101EF0006D8F7E8F8F8F80E090E0A0E0B0EC88A3A4
:101F000099A3AAA3BBA3F80180899189A289B38967
:101F10008E8B9F8BA88FB98F6BE070E0CE0184967B
:101F20000E9441128E899F89A88DB98D8997A1053C
:101F3000B10548F08DE591E19B838A83DF91CF91D4
:101F40001F910F9108958CA580618CA7DF91CF918F
:101F50001F910F91089560E0BECF8F929F92AF9234
:101F6000BF92FF920F931F93CF93DF938C016EE686
:101F70007DE1FC0180810E94DF11EC010E94E21DE5
:101F80008F8D98A1892B09F058C0F80104811BA1FD
:101F9000FF24F394002339F16C897D898E894F2DBC
:101FA0000E94FC1A21E001111CC014FB882780F953
:101FB00091E08927281741F08F89988DA98DBA8DD6
:101FC000892B8A2B8B2B89F410711F291BA3DF917E
:101FD000CF911F910F91FF90BF90AF909F908F90E6
:101FE000089520E0E2CFF12CD7CF0E94E5188F882A
:101FF000988CA98CBA8CDC01CB01880D991DAA1D87
:10200000BB1D888B998BAA8BBB8B8C839D83AE83E6
:10201000BF8383ED94E19B838A83107114601F2931
:102020001BA3CE01DF91CF911F910F91FF90BF9025
:10203000AF909F908F900C94341E82E10E94D81D27
:10204000CF92DF92EF92FF92CF93DF93FC01A4A196
:10205000B5A1109761F416861786108A118A80E060
:10206000DF91CF91FF90EF90DF90CF9008958D9109
:102070009C91119795A384A316968D919C91179787
:10208000958784871296CD90DD90ED90FC90159702
:10209000AC01092E000C660B770B4C0D5D1D6E1DFF
:1020A0007F1D408751876287738724A524FD43C025
:1020B0004289538964897589C40ED51EE61EF71EB0
:1020C000C28AD38AE48AF58AC482D582E682F782FC
:1020D00018968D919C911997AC0160E070E0440FC7
:1020E000551F661F771F46875787608B718B1A961F
:1020F0002C911A9720FD3FC040A151A162A173A16C
:10210000480F591F611D711D40A351A362A373A302
:10211000809168019091690111969C938E93B09380
:102120006901A093680181E0DF91CF91FF90EF906A
:10213000DF90CF9008954481558166817781C40EE8
:10214000D51EE61EF71EC482D582E682F782892B51
:1021500031F1206224A718968D919C911997AC01BA
:1021600060E070E046875787608B718B1A962C91E0
:102170001A9720FFC1CFAC0160E070E0C0A0D1A0F1
:10218000E2A0F3A04C195D096E097F0940A351A399
:1021900062A373A3C58DD68D878D8883B9CF2F7D1C
:1021A000D9CF0F931F93CF93DF938C0167E57FE027
:1021B000DC018C910E94DF11EC010E945B12FC019A
:1021C000D80114964D915D916D917C911797428342
:1021D00053836483758318968D919C911997918789
:1021E0008087892B09F466C0D8011C968D919C913B
:1021F0001D97978386831286F8948CA5282F2170CB
:1022000081FB992790F9291729F091E08927928578
:10221000916092874E855F8568897989452B462B29
:10222000472B59F583FD19C08CA7118210828CA110
:102230009DA1892BA9F1AEA1BFA1ED93FC93FFA3B2
:10224000EEA3CE010E942010CE010E94341E78948D
:10225000DF91CF911F910F91089580916801909126
:10226000690191838083F0936901E0936801789418
:10227000DF91CF911F910F9108958CA71182108249
:102280008CA19DA1892B89F0AEA1BFA1ED93FC93F8
:10229000FFA3EEA37894DF91CF911F910F91089542
:1022A000FFA3EEA3FDA3ECA3CCCFFFA3EEA3FDA35E
:1022B000ECA3CDCF87E10E94D81DCF92DF92EF92A1
:1022C000FF920F931F93CF93DF93EC01EA8DFB8D69
:1022D0008C8D80830E94E5180E891F89288D398D89
:1022E0006B017C01C00ED11EE21EF31E8E859F8500
:1022F000A889B9890197A109B1098E879F87A88B01
:10230000B98B80FF0EC0CC82DD82EE82FF8281E03D
:10231000DF91CF911F910F91FF90EF90DF90CF90C1
:102320000895892B8A2B8B2B59F1488559856A850D
:102330007B858A899B89AC89BD89840F951FA61FDF
:10234000B71F8A8B9B8BAC8BBD8B0C851D85012E9B
:10235000000C220B330B400F511F621F731F488765
:1023600059876A877B872B2F8C159D05AE052F0912
:1023700027FDC9CF8C839D83AE83BF8381E0C8CF07
:10238000CE010E942010811102C080E0C1CF4C819B
:102390005D816E817F81972F4C155D056E059F09CC
:1023A00097FFB6CF4C195D096E097F094038514C33
:1023B0006F4F7F4F0CF0A7CF88E10E94D81D9091FE
:1023C0005801891788F4E0915901F0915A0194E07D
:1023D000899FE00DF11D1124808191818617970757
:1023E00019F48281938108958CE00E94D81DCF92C8
:1023F000DF92EF92FF92CF93DF93C0916001D09173
:1024000061012097B9F121976E01E12CF12CA09187
:102410005F01B0E02097D9F020E030E040E050E0EC
:10242000BA0180915D0190915E01FC01E20FF31F02
:102430004F5F5F4F6F4F7F4F2A0F3B1F820F931FDE
:10244000918380834C155D056E057F0550F3809167
:102450005D0190915E01CA9FF001CB9FF00DDA9F64
:10246000F00D1124E80FF91F118210829093690179
:1024700080936801DF91CF91FF90EF90DF90CF9034
:102480000895FC0113821282118210826F3F710540
:1024900009F07CF48091600190916101892B49F4ED
:1024A00080915F0190E08617970714F460935F01B5
:1024B00008950E946E132FB7F8948091680190914F
:1024C0006901009749F0FC014081518150936901F5
:1024D000409368012FBF08958FE00E94D81DCF93CD
:1024E000DF93C0915B01D0915C01AE01480F591F91
:1024F0002DB73EB721503F4F22273A952417350775
:1025000070F050935C0140935B01AC0160E070E0BF
:10251000CE010E94B121CE01DF91CF91089581E1DA
:102520000E94D81DCF93DF9390915801891730F501
:10253000C82FD0E0CC0FDD1FCC0FDD1FE09159017B
:10254000F0915A01EC0FFD1F80819181892BB1F42C
:102550008091600190916101892B81F47183608386
:10256000CA010E946F122091590130915A01C20F85
:10257000D31F9B838A83DF91CF9108958BE00E94C4
:10258000D81D80912801882329F0823011F0109203
:102590002801089582E00E94D81D88E00E94D81D7D
:1025A000CF92DF92EF92FF92FC01408151816281D4
:1025B00073812481E4ECF9E085919591A591B49122
:1025C000481759076A077B0770F56A017B01C20E3D
:1025D000D11CE11CF11C8C159D05AE05BF0500F555
:1025E000841B90E09A012C593D4F3F932F939F936A
:1025F0008F937F936F935F934F938FE69AE09F93B0
:102600008F930E94B21E8DB79EB70A960FB6F894AC
:102610009EBF0FBE8DBFFF90EF90DF90CF900895CB
:10262000822F90E0DFCF80E090E0DCCFCF92DF928E
:10263000EF92FF920F931F930E94E5189F938F9341
:102640007F936F9301E010E020E030E0C0905401F0
:10265000D0905501E0905601F09057016C157D0522
:102660008E059F0518F000E010E098018091500160
:1026700090915101A0915201B0915301800F911F8F
:10268000A21FB31FBF93AF939F938F9383E69AE0EC
:102690009F938F930E94B21E8DB79EB70A960FB676
:1026A000F8949EBF0FBE8DBF1F910F91FF90EF90CA
:1026B000DF90CF9008950E94E5189F938F937F93AA
:1026C0006F938DE59AE09F938F930E94B21E0F90B7
:1026D0000F900F900F900F900F9008958EE00E9432
:1026E000D81DCF92DF92EF92FF921F93CF93DF938B
:1026F0006A017B0162ED79E0FB019491981749F042
:10270000675F7F4FFAE068307F07B1F78CE20E9485
:10271000D81DFB013896949191FF19C030EAC31679
:102720003FE5D306E104F10408F082C0A8EDCA1623
:10273000A7E2DA06E104F10408F08BC0B7EFCB168C
:10274000B8E0DB06E104F10488F012E010C0F8EB19
:10275000CF16F7E4DF06E104F10408F058C037EFC4
:10276000C31638E0D306E104F10478F711E0FB0169
:102770003396A591B491FB013596C591D491FB0197
:1027800037963491E82FE695E695E695F0E0EE0F62
:10279000FF1FE853F64F459154918770E1E0F0E058
:1027A0007F0101C0EE0C8A95EAF76F5F7F4FFB0156
:1027B000C590D490892F8170A038B10509F45CC010
:1027C000EFB7F8949881977011F0191352C01883DD
:1027D00081114AC09FB7F894622F70E0E6017983B7
:1027E00068839FBF9C913160392B3C93DA0111962D
:1027F0009C911197E92A1196EC92EFBFB601DF91F7
:10280000CF911F91FF90EF90DF90CF900895A0ECB3
:10281000CA16AEE3DA06A1E0EA06F104D0F0C1146C
:10282000BBEFDB06B4E0EB06F10488F414E09FCFC5
:10283000C0E8CC16CEE7DC06C1E0EC06F10458F4A3
:10284000D0E4CD16DFEBDD06E104F10478F315E00A
:102850008ECF13E08CCFC114EBEFDE06E4E0EE0682
:10286000F10428F416E083CFE6012883BBCF17E0FC
:102870007ECF8AE20E94D81D8BE20E94D81D24EAF6
:102880002093BC000E94A71A8091B90090E0A0E0BC
:10289000B0E080319105A105B10521F00897A105AF
:1028A000B10509F4089587E20E94D81D8230910590
:1028B00089F05CF08330910529F0049771F48DE183
:1028C0000E94D81D8EE10E94D81D019739F48FE136
:1028D0000E94D81D8CE10E94D81D089508950F9381
:1028E0001F93FC01A489B58986898C9393A181E00B
:1028F000892783A3448155816681778180FF12C037
:102900000085118522853385400F511F621F731F7B
:1029100082FD12C0448355836683778381E01F91D3
:102920000F9108950485158526853785400F511F21
:10293000621F731F82FFEECF0089118922893389BC
:10294000872F401751076207830B87FDE3CF83ED85
:1029500094E193838283B901A801448355836683FC
:10296000778381E01F910F9108950895FC01808184
:10297000A481B58140855185628573859FB7F894A0
:10298000813061F0823019F04C939FBF08954D93D0
:102990005D936D937C9313979FBF089511965C93FD
:1029A0004E939FBF08958F929F92AF92BF92CF9206
:1029B000DF92EF92FF921F93CF93DF93EC01EF8CA6
:1029C000F8A0E114F10409F4F0C0F70180819181CD
:1029D00098A38F8F86809780A084B18411E08114A2
:1029E0009104A104B10409F4A1C06C897D898E8988
:1029F000412F0E94FC1A8091680190916901F701B2
:102A000091838083F0926901E092680181149104BE
:102A1000A104B104E9F08B8D9C8DAD8DBE8D88161F
:102A20009906AA06BB06A0F44F89588D698D7A8D48
:102A3000411551056105710509F45BC08C819D81CB
:102A4000AE81BF81480F591F6A1F7B1F166022C0CD
:102A50008BA131E081149104A104B10409F068C094
:102A600084FB992790F921E09227391709F443C094
:102A70004F89588D698D7A8D411551056105710514
:102A8000D1F18C819D81AE81BF81480F591F6A1F92
:102A90007B1F1460EF8DF8A1309709F077C02BA150
:102AA000488B598B6A8B7B8B2071212B2BA311FFB9
:102AB0005FC0880D991DAA1DBB1D12FD52C02FE6D7
:102AC00034E13B832A838C839D83AE83BF838886D6
:102AD0009986AA86BB868B8D9C8DAD8DBE8D8819FF
:102AE0009909AA09BB098C879D87AE87BF8781E0BA
:102AF00011C012608BA1EF8DF8A13097D9F4188A1C
:102B0000198A1A8A1B8A8071812B8BA3812F82706C
:102B100011FD34C0DF91CF911F91FF90EF90DF90B6
:102B2000CF90BF90AF909F908F90089510E05DCFB1
:102B300030E096CF4281538164817581488B598BF7
:102B40006A8B7B8B8071912F9460892B8BA311FFF3
:102B50000FC08C819D81AE81BF81880D991DAA1DFA
:102B6000BB1D2B2F84179507A607270B27FDA7CF83
:102B70004C835D836E837F8381E0CCCF40E050E067
:102B8000BA018C819D81AE81BF8193CFC280D380F9
:102B9000E480F580872F4C155D056E058F0987FD54
:102BA00007C08BA1B701A601C9CF85E10E94D81D3E
:102BB00083E10E94D81DFC0185818F9384818F93CE
:102BC00080811F928F9381E59AE09F938F930E945B
:102BD000B21E0F900F900F900F900F900F900895CE
:102BE000DC012C911496ED91FC9115973FB7F89468
:102BF0002130E9F02230B1F0808190E0A0E0B0E037
:102C00003FBFBF93AF939F938F938BE49AE09F93C3
:102C10008F930E94B21E0F900F900F900F900F9005
:102C20000F90089580819181A281B381E9CF808145
:102C30009181A0E0B0E0E4CF0F931F93CF93DF9397
:102C40008C018091600190916101892B09F04BC04A
:102C500060915F0170E0623071052CF482E0809336
:102C60005F0162E070E0E0915B01F0915C014DB7C3
:102C70005EB741505F4F44275A959F01C0E0D0E0B6
:102C8000C901860F971F4817590730F121969C01FB
:102C9000C115A4E0DA07A1F78E1B9F0B0E946F12EB
:102CA000D0936101C093600190935E0180935D01B8
:102CB0000E94F711F80180819181A281B3818093F4
:102CC000620190936301A0936401B0936501DF9169
:102CD000CF911F910F910895209711F0C901DCCF7A
:102CE00080E10E94D81D8DE00E94D81DCF932091D5
:102CF000590130915A01232B91F4FC01C0818C2F92
:102D000090E0880F991F880F991F0E946F1290936F
:102D10005A0180935901C0935801CF9108958AE0D8
:102D20000E94D81D80916001909161019F938F93C3
:102D300021E030912801311101C020E01F922F9332
:102D4000209165012F93209164012F9320916301BD
:102D50002F93209162012F9321E0892B09F420E029
:102D60001F922F9387E59AE09F938F930E94B21E44
:102D70008DB79EB70C960FB6F8949EBF0FBE8DBF51
:102D80000895CF93DF93EC01988140915801A09171
:102D90005901B0915A010BC0FD0184E0989FE00DEC
:102DA000F11D1124208131812617370741F09F5FE3
:102DB000941790F380E090E0DF91CF91089598838D
:102DC00082819381DF91CF910895B0990FC0809156
:102DD000660190916701019610920E0110920D010B
:102DE0009093100180930F0181E0089581E086BBEC
:102DF000809166019091670101969093670180939D
:102E0000660120E030E830930E0120930D0190938D
:102E1000100180930F0181E00895FC0144815581E8
:102E200066817781208580810C947113EF92FF92E7
:102E30000F931F93CF93DF937C0160E977E1DC016F
:102E40008C910E94DF118C010E945B12EC01F70152
:102E500084819581A681B7818A839B83AC83BD835E
:102E6000808591859F838E83F89419821882D8017A
:102E700051968D919C915297892BB9F15396ED9172
:102E8000FC915497D183C0835496DC93CE9353978F
:102E900080E090E07894892B39F4DF91CF911F91F5
:102EA0000F91FF90EF900895C8010E94E21DD80194
:102EB00012968D919C911397845C9B41F1F08A81CD
:102EC0009B81AC81BD812FE33BE1F80133832283F9
:102ED00084839583A683B783C801DF91CF911F9127
:102EE0000F91FF90EF900C94341EF801D48BC38B9C
:102EF000D28BC18B81E090E0CDCF8A819B81AC8168
:102F0000BD81F8014481558166817781272F48175B
:102F100059076A072B0B27FFD6CF80E20E94D81DE6
:102F2000CF92DF92EF92CF93DF93EC0148855985E2
:102F30006A857B852C858C810E9471136B01E82E3C
:102F400045E150E060E977E188810E949212FC013E
:102F5000C086D186E28688899989908B87878C89FB
:102F60009D89AE89BF8983879487A587B6878FE3BC
:102F70009BE19383828368E070E0CF014196DF910B
:102F8000CF91EF90DF90CF900C9441121F920F924F
:102F90000FB60F921124EF92FF920F931F932F936E
:102FA0003F934F935F936F937F938F939F93AF93D1
:102FB000BF93CF93DF93EF93FF930DC07A0180917E
:102FC0008400909185008E199F0997FD7CC07894AC
:102FD000B29998C0F894C0912201D0912301EA815E
:102FE000FB81309709F0AAC0EA8DFB8D2C8D2083E0
:102FF0008E859F85019709F4D0C09F878E8788852D
:103000009985AA85BB854C815D816E817F81480F42
:10301000591F6A1F7B1F4C835D836E837F832083D0
:103020002CA525FF0EC00C851D85012E000C220B42
:10303000330B800F911FA21FB31F88879987AA8720
:10304000BB87E881F9810481158126813781872F2B
:10305000401751076207830B87FDB0CF7801F093CB
:103060002301E0932201A0912401B091250114963F
:103070000D911D912D913C911797872F4017510766
:103080006207830B87FFFD01DF010190F081E02DD6
:103090000481158126813781872F401751076207E8
:1030A000830B87FFF1CFF983E883CD93DC93D09333
:1030B0002501C093240180918400909185008E1990
:1030C0009F0997FF84CF863A9F4F0CF079C0F0920A
:1030D0008900E0928800FF91EF91DF91CF91BF913D
:1030E000AF919F918F917F916F915F914F913F91A0
:1030F0002F911F910F91FF90EF900F900FBE0F90A7
:103100001F901895F8948091840090918500970104
:10311000281B390B2038314C0CF44BC0209127016F
:1031200027FD29C09C012854344F30938B002093F5
:103130008A0024E026BB7C01F394C9CFCE01099517
:103140004C815D816E817F8181117BCFE881F98126
:10315000E480F580F0932301E09322018091240123
:1031600090912501C817D90709F029CFF0932501BF
:10317000E093240124CF20912601209327019C0174
:10318000205C304E30938B0020938A0024E026BBD5
:10319000909389008093880012CFCE010E94201066
:1031A000EA8DFB8D9C8D90834C815D816E817F814A
:1031B000CBCF209128012111B1CF82E20E94D81DEE
:1031C0007894B2999FCFF894FACE2FB7F894609183
:1031D0008400709185008091660190916701B0999B
:1031E00002C02FBF08952FBF7F3FE1F301960895DE
:1031F00078940E946F052FEF260F6623C1F0FC0123
:103200008FEF9FEF31918327082E8295807F802555
:10321000092E982F82958F700826869598278927E2
:10322000880F880F880F8025215060F708958FEF51
:103230009FEF0895FC01A085B1859C91828589232B
:10324000D1F0818D80958170C9F4838D815031F1E9
:10325000838F448155816681778187859089A18993
:10326000B289840F951FA61FB71F84839583A683F9
:10327000B78381E00895818D817039F385E599E107
:103280009383828383899489A589B689848395836E
:10329000A683B783828D838F81E00895648D8789AB
:1032A000908D0E940D0D80E008950F931F93FC01F7
:1032B000A085B1859C910481158126813781438544
:1032C000548565857685400F511F621F731F828567
:1032D000892361F0818D8095817059F044835583F5
:1032E0006683778381E01F910F910895818D8170AE
:1032F000A9F7438B548B658B768B8AE199E1938395
:103300008283CF011F910F910C941A19CF93DF93F1
:10331000EC0167E57FE088810E94DF11FC018C8170
:103320009D81AE81BF81892B8A2B8B2B51F420E0AC
:10333000F89494A59D7F922B94A77894DF91CF91D8
:10334000089522E0F5CF0F931F93CF93DF938C0165
:10335000EC01A897CE010E94E21D1C821D821E82F4
:103360001F821A8A1B8A1C8A1D8A88A199A1AAA178
:10337000BBA12CA54E855F856889798924FD04C091
:103380007695679557954795841B950BA60BB70BBC
:10339000B7FD40C0B095A095909581959F4FAF4FD8
:1033A000BF4F88A399A3AAA3BBA31E861F86188A12
:1033B000198A247128602CA76D8D7E8D8F8D40E039
:1033C0000E94FC1A4CA544706A8D7B8D8C8D0E94E6
:1033D000FC1AD8011497ED91FC9111973097A9F040
:1033E000409168019091690101C0F901208131810A
:1033F00040839183F0936901E09368014E2F9F2FE2
:103400002115310591F71D921C92DF91CF911F91EB
:103410000F910895B095A095909581959F4FAF4FCE
:10342000BF4FB8CF0F931F93CF93DF938C0167E506
:103430007FE0FC0180810E94DF11EC016EEC7AE0FC
:10344000F80184810E94DF11BE01685D7F4F4FB794
:10345000F8942AA53BA5232B89F423EA39E13BA75D
:103460002AA7FC012489358939A728A7758B648B85
:103470004FBFDF91CF911F910F91089589E10E9475
:10348000D81DCF93DF93EC0167E57FE088810E9430
:10349000DF11FC018C819D81AE81BF81F89446854E
:1034A000578560897189452B462B472B79F4848396
:1034B0009583A683B783828B938BA48BB58B84A5CE
:1034C000877F84A77894DF91CF91089586E10E9449
:1034D000D81DCF93FC01C08167E57FE08C2F0E944F
:1034E000DF11FC01F89480A191A1A2A1B3A124A5B0
:1034F000468557856089718924FD04C07695679556
:1035000057954795841B950BA60BB70BB7FF07C0C4
:10351000B095A095909581959F4FAF4FBF4F7894F0
:10352000B054BF93AF939F938F931F92CF9385E433
:103530009AE09F938F930E94B21E8DB79EB7089614
:103540000FB6F8949EBF0FBE8DBFCF910895CF9256
:10355000DF92EF92FF926B017C0109C00E94E51897
:10356000292F6C157D058E052F0927FF09C0809135
:10357000BC0087FFF3CFFF90EF90DF90CF900895CE
:1035800088E20E94D81D8832A0F567FD32C0E82F7E
:10359000E695E695E695F0E0EE0FFF1FE853F64F4F
:1035A000A591B491109729F1877021E030E0A9012D
:1035B00002C0440F551F8A95E2F7CA014FB7F8942D
:1035C00012963C911297662381F0382B282F209574
:1035D00012963C93129711963C91119723231196C2
:1035E0002C9311974FBFBD010895282F20953223AA
:1035F000EFCF83E20E94D81DFB012FB7F894928190
:10360000411105C08095892382832FBF0895892B9E
:1036100082832FBF0895883278F5E82FE695E695E6
:10362000E695F0E0EE0FFF1FE853F64FA591B49139
:10363000109711F1877021E030E0A90102C0440F1A
:10364000551F8A95E2F7CA013FB7F89412962C915C
:10365000129761110FC04095242312962C93129754
:1036600011962C911197282B11962C9311973FBFEF
:10367000BD010895242BF1CF84E20E94D81D0F9341
:103680001F93CF93DF93FC01A189B2898D919C9107
:103690001197928B818B16968D919C911797C0856F
:1036A000D185228521113FC02FB7F894AC01552751
:1036B000598348832FBF2091680130916901119689
:1036C0003C932E93B0936901A0936801A189B289BC
:1036D000109759F5278530898217930741F0838524
:1036E0009485A585B6850097A105B10531F480E0E4
:1036F000DF91CF911F910F9108954481558166818B
:103700007781840F951FA61FB71F84839583A68397
:10371000B78384EC9BE19383828381E0DF91CF9137
:103720001F910F9108958883C6CF12964D915D9198
:103730006D917C911597278530898217930741F009
:1037400083859485A585B6850097A105B10551F4BB
:10375000448355836683778381E0DF91CF911F9106
:103760000F9108950481158126813781800F911F63
:10377000A21FB31F2B2F84179507A607270B27FF20
:10378000E7CF80E20E94D81D81E20E94D81D3F92BF
:103790004F925F926F927F928F929F92AF92BF9261
:1037A000CF92DF92EF92FF920F931F93CF93DF930D
:1037B000CDB7DEB77C018DB69EB6FC01608064E8B3
:1037C0007DE0862D0E94DF11F70154800085118570
:1037D00074842DB73EB7271931090FB6F8943EBF50
:1037E0000FBE2DBFEDB7FEB731965F01FC014080E3
:1037F0000E94E5186B017C01F0E8CF0EF8E3DF1EB4
:10380000F1E0EF1EF11CC701B6010E943F14409287
:10381000BB0084E88093BC00C701B6010E94A71AD0
:10382000552081F094E8392EF80181918F01809321
:10383000BB003092BC00C701B6010E94A71A5A947F
:103840005110F2CFC701B6010E943F14842D816050
:103850008093BB0084E88093BC00C701B6010E943E
:10386000A71A44244A94470C7720A1F08501542CD0
:1038700084EC382E511041C08501040D111D84E8DF
:103880008093BC00C701B6010E94A71A8091BB00BB
:10389000F801808384E98093BC0080E090E00E947E
:1038A0005614BF92AF921F927F921F926F9287E23F
:1038B0009AE09F938F930E94B21E2DB73EB7285F68
:1038C0003F4F0FB6F8943EBF0FBE2DBF0FB6F89412
:1038D0009EBE0FBE8DBEDF91CF911F910F91FF90C5
:1038E000EF90DF90CF90BF90AF909F908F907F90A0
:1038F0006F905F904F903F9008953092BC00C70149
:10390000B6010E94A71A8091BB00F80181938F0134
:103910005A94B0CFBF92CF92DF92EF92FF920F9363
:103920001F93CF93DF93EC0164E87DE088810E94D0
:10393000DF11BC8008851985FC01D0810E94E51843
:103940006B017C01F0E8CF0EF8E3DF1EF1E0EF1E23
:10395000F11CC701B6010E943F14D093BB0084E85C
:103960008093BC00C701B6010E94A71ABB2079F062
:10397000CB2DD4E8F80181918F018093BB00D093C7
:10398000BC00C701B6010E94A71AC15099F784E98B
:103990008093BC0080E090E0DF91CF911F910F9168
:1039A000FF90EF90DF90CF90BF900C945614CF9281
:1039B000DF92EF92FF920F931F93CF93DF938C01CF
:1039C0006EE67DE1DC018C910E94DF11EC010E942A
:1039D0005B12FC01D8011496CD90DD90ED90FC9027
:1039E0001797C282D382E482F58218964D915D9139
:1039F0006D917C911B974683578360877187F894FC
:103A0000118210828F8D98A1892B81F0A9A1BAA172
:103A1000ED93FC93FAA3E9A37894DF91CF911F91E2
:103A20000F91FF90EF90DF90CF900895FAA3E9A354
:103A3000F8A3EF8F8BA182FD25C0C88AD98AEA8AB4
:103A4000FB8A982F94609BA381FD10C0CE010E9439
:103A5000E21DCC82DD82EE82FF8283ED94E19B83C6
:103A60008A83CE010E94341E7894D7CF4C815D8129
:103A70006E817F81872F4C155D056E058F0987FF4D
:103A8000E5CFF2CF488959896A897B89972F4C15F0
:103A90005D056E059F0997FFD0CF83E10E94D81D79
:103AA000CF93DF93EC016EE67DE188810E94DF1108
:103AB000F894FC01278D30A1232B69F44C815D81A2
:103AC0006E817F81FC01438F548F658F768F789450
:103AD000DF91CF91089584E10E94D81DCF92DF92AB
:103AE000EF92CF93DF93EC0161E088859985AA85F9
:103AF000BB85892B8A2B8B2B09F460E08C810E947B
:103B00000B1B6B01E82E44E250E06EE67DE18881FC
:103B10000E949212FC01C48AD58AE68A21E0488577
:103B200059856A857B85452B462B472B09F420E078
:103B30004C855D856E857F85452B462B472BB1F4E3
:103B400030E0232BFC0123A3488959896A897B89AA
:103B5000478B508F618F728F6AE070E04F96DF91D4
:103B6000CF91EF90DF90CF900C94411230E1E9CFEC
:103B700080E0089510922601EAE1F1E084819581C8
:103B8000A681B781AC01BD015659674E7F4F448372
:103B90005583668377839659A74EBF478093160156
:103BA00090931701A0931801B093190181E0089533
:103BB000F894682F70E087E391E00E945F2184E031
:103BC0000E94D81D0F931F934FB7F894E0912201E4
:103BD000F0912301E817F90729F42AC08217930707
:103BE00089F0F9012081318121153105B9F7209142
:103BF0002401309125018217930781F04FBF1F9157
:103C00000F910895DC012D913C9131832083209107
:103C10002401309125018217930781F78AE191E011
:103C200090932501809324014FBF1F910F91089518
:103C3000DC0114960D911D912D913C9117970093E5
:103C400004011093050120930601309307012D9183
:103C50003C91309301012093000120E031E030934A
:103C6000230120932201C3CFAF92BF92CF92DF9264
:103C7000EF92FF921F93CF93DF93DC011496CD90C8
:103C8000DD90ED90FC9017971FB7F894C09122013A
:103C9000D09123014C815D816E817F818F2DC4166F
:103CA000D506E606870B87FD1FC0FE010990D88167
:103CB000C02D4C815D816E817F819F2DC416D506FC
:103CC000E606970B97FFF1CF1196DC93CE93B18365
:103CD000A0831FBFDF91CF911F91FF90EF90DF90E6
:103CE000CF90BF90AF9008955D010E94E5182F2DF1
:103CF000C616D706E806290B27FD25C081E0C0308F
:103D0000D80741F1F501D183C083C0920401D0925C
:103D10000501E0920601F0920701B0920101A09224
:103D2000000180E091E09093230180932201809133
:103D3000840090918500C2969093890080938800BA
:103D400082E086BBC6CF809128018111D7CF83E066
:103D50000E94D81D8091000190910101F50191838D
:103D60008083D3CF2F923F925F926F927F928F92F8
:103D70009F92AF92BF92CF92DF92EF92FF920F93FA
:103D80001F93CF93DF93CDB7DEB728970FB6F89484
:103D9000DEBF0FBECDBF80916A018823C1F0289697
:103DA0000FB6F894DEBF0FBECDBFDF91CF911F914C
:103DB0000F91FF90EF90DF90CF90BF90AF909F90CA
:103DC0008F907F906F905F903F902F90089581E04B
:103DD00080936A018E01025E1F4F20918E025090E7
:103DE0008D022515C0F4452D50E0CC8CDD8C32E0E1
:103DF000C30ED11CF60184913A01680E711CC301F7
:103E00008136910554F1821B91098136910560F04C
:103E100010926A01C4CF10928D0210928E0240E07F
:103E200050E0512C20E0E1CF10928D0260918E0283
:103E3000561AE52CF12C70E0635D7D4FA7018DE2F1
:103E400092E00E949F2110928E0250928D028091EA
:103E5000C10080628093C100A7019A01235D3D4F9C
:103E60007901F601A491A63008F440C1C901029677
:103E7000CA2ED12CF5E0CF1AD108C80ED91EEC8D70
:103E8000FD8D33964491EC8DFD8D34968590949004
:103E90005401EC8DFD8D259134912038310508F0C9
:103EA0000AC1BC016F5F7F4F7E836D832F77DC017A
:103EB0002C933401640E711C78866F826F80788435
:103EC000A614B70409F441C18D809E80C814D9049A
:103ED00048F0F5018491853009F4BFC008F441C071
:103EE000883018F086E00E94D81DF80120813181C9
:103EF000F6016D807E80E619F709AF01FF0F660BB2
:103F0000770B49835A836B837C83A901330F660B3C
:103F1000770B69807A808B809C8064167506860694
:103F2000970608F4D4C06D807E802FEF621A720A63
:103F3000AD81BE814C931801B4E02B0E311CF80109
:103F4000228133818A01B901863009F4C3C0C301DB
:103F50000E9496214301800E911E9E828D828101D6
:103F6000A6C0823008F4BAC0833009F4E4C0F80176
:103F7000408151813A01812C912C0E5F1F4FD40159
:103F8000C3018096A11DB11D80389105A105B10521
:103F900008F4CEC0A4019301305F4F4F5F4F21154D
:103FA00030444105510508F43FC0D401C3011896BF
:103FB0000097A042B10540F1A40193015C5F211577
:103FC00031054105504180F0D401C3015CE1B69553
:103FD000A795979587955A95D1F78068AD81BE8151
:103FE0008C931196BE83AD83D401C30145E1B69590
:103FF000A795979587954A95D1F78068AD81BE8141
:104000008C931196BE83AD83D401C3013EE0B69577
:10401000A795979587953A95D1F78068AD81BE8130
:104020008C931196BE83AD83ED81FE813196D401D0
:10403000C30127E0B695A795979587952A95D1F75F
:104040008068AD81BE818C939F012F5F3F4F3E837F
:104050002D83462D4F7740832AC098012E5F3F4F16
:10406000F801A081B1818D819E8101966C916623BA
:1040700099F08C159D0580F4FD01319604C0C81699
:10408000D90609F453C00196AC0141505109DA0137
:104090006C9361916111F3CFAC016D807E80461904
:1040A00057094150D3014C939E838D8389012FEF93
:1040B000A21AB20A03CF0196B901660F672F661FD5
:1040C000770B71956068D70112966C93EACEB401B4
:1040D000A30129CFC3010E9480213CCFD8016D905C
:1040E0007D908D909C900C5F1F4F49CF1A2FD70168
:1040F0001C938091110111968C936DEF610FC70194
:104100000E94FB18E10EF11CF70133979083319662
:10411000808331968EE78083A52DA10FA0938D0219
:104120008091C10080628093C10072CEC601B4CF7D
:10413000ED81FE8189CFD8014D915C913A01550FF7
:10414000880899080E5F1F4F1ACF0D811E810E1926
:104150001F0913E0100FCBCFF89498E088E10FB659
:10416000F894A895809360000FBE90936000FFCFF5
:104170001F920F920FB60F9211248F93EF93FF931C
:10418000E0918E0280918D02E81790F481E08E0F0D
:1041900080938E02F0E0E35DFD4F80818093C60046
:1041A000FF91EF918F910F900FBE0F901F90189578
:1041B0008091C1008F7D8093C100FF91EF918F911D
:1041C0000F900FBE0F901F9018951F920F920FB671
:1041D0000F9211248F939F93EF93FF938091C600CA
:1041E0008E37A9F0E0912C02E03C40F491E09E0F64
:1041F00090932C02F0E0E459FE4F8083FF91EF9101
:104200009F918F910F900FBE0F901F901895109255
:104210002601E8CF1F920F920FB60F92112481E072
:1042200080936B018DE20E94D81DDB018F939F93D9
:104230000E942521BF91AF91A29F800D911DA39F48
:10424000900DB29F900D112408950E943021A59FDA
:10425000900DB49F900DA49F800D911D1124089581
:10426000A29FB001B39FC001A39F700D811D1124B7
:10427000911DB29F700D811D1124911D0895DC01C7
:104280002D923D924D925D926D927D928D929D9276
:10429000AD92BD92CD92DD92ED92FD920D931D9364
:1042A000CD93DD93FF91EF918DB78D938EB78D9365
:1042B0008FB78D93ED93FD93882799270994DC019F
:1042C000CB0181309105811D2D903D904D905D90E9
:1042D0006D907D908D909D90AD90BD90CD90DD9036
:1042E000ED90FD900D911D91CD91DD91ED91FD91A0
:1042F0000D90F894FEBF0FBEEDBFED91FD910994B6
:10430000FB01DC0102C005900D9241505040D8F7EE
:104310000895FC014150504030F001900616D1F74D
:104320003197CF010895882799270895FB01DC0173
:1043300002C001900D9241505040D8F7089568177F
:10434000790768F4FB01DC01E40FF51FA40FB51F2A
:1043500002C002900E9241505040D8F708950C943C
:104360009621DC0101C06D9341505040E0F7089563
:04437000F894FFCFEF
:104374000000B81D00000000FF0000E516008000EA
:1043840000100000DF1D000000801201BA1D0000B3
:0A43940000001A011A0100000000E9
:00000001FF
